:100000000C9484010C94A1010C94A1010C94A10105
:100010000C94A1010C94A1010C94A1010C94A101D8
:100020000C94A1010C94A1010C94A1010C94A101C8
:100030000C94A1010C94A1010C94A1010C94A101B8
:100040000C94A1010C94A1010C94A1010C94A101A8
:100050000C94A1010C94A1010C94A1010C94A10198
:100060000C94A1010C94A101BC5F9C60A46184620A
:10007000B6639664B0659F66B567FFFF0000000039
:1000800000000000002F000000000700070000141F
:100090007F147F1400242A7F2A120062640813232D
:1000A00000364955225000000503000000001C22C4
:1000B0004100000041221C000014083E0814000802
:1000C000083E0808000000A06000000808080808B2
:1000D000000060600000002010080402003E51494A
:1000E000453E0000427F40000042615149460021E8
:1000F00041454B31001814127F1000274545453902
:10010000003C4A494930000171090503003649495C
:10011000493600064949291E000036360000000015
:100120005636000000081422410000141414141460
:100130000000412214080002015109060032495909
:10014000513E007C1211127C007F49494936003E25
:1001500041414122007F4141221C007F49494941E0
:10016000007F09090901003E4149497A007F0808DA
:10017000087F0000417F4100002040413F01007F97
:1001800008142241007F40404040007F020C027F63
:10019000007F0408107F003E4141413E007F090975
:1001A0000906003E4151215E007F0919294600469B
:1001B000494949310001017F0101003F4040403F72
:1001C000001F2040201F003F4038403F00631408BC
:1001D0001463000708700807006151494543000097
:1001E0007F41410000552A552A55000041417F00BA
:1001F00000040201020400404040404000000102AF
:100200000400002054545478007F48444438003897
:100210004444442000384444487F0038545454181F
:1002200000087E0901020018A4A4A47C007F080431
:1002300004780000447D4000004080847D00007F01
:10024000102844000000417F4000007C041804781E
:10025000007C0804047800384444443800FC24241A
:1002600024180018242418FC007C08040408004802
:100270005454542000043F444020003C4040207C23
:10028000001C2040201C003C4030403C0044281012
:100290002844001CA0A0A07C004464544C440000EE
:1002A000087741000000006300000000417708006B
:1002B000000804080804003A4040207A003D40400D
:1002C000403D002154545479007D1211127D0039B3
:1002D00044444439003D4242423D000205020000D0
:1002E000007E01495573007C1010081CAE2000B040
:1002F000C8001040813FA1A6A83FA4D300D5F0D9E3
:1003000022DA12DB208D140011241FBECFEFD8E0BB
:10031000DEBFCDBF11E0A0E0B1E0E6EFFEE002C03D
:1003200005900D92A035B107D9F721E0A0E5B1E025
:1003300001C01D92A335B207E1F70E94BA040C94E4
:1003400079070C9400001092B90088E48093B800FB
:1003500084E08093BC00089594EA9093BC0020E46C
:1003600031E0ECEBF0E009C02150310931F480912B
:100370005201816080935201089590819923A4F7DE
:100380008093BB0084E88093BC0080E491E0ECEBB8
:10039000F0E008C0019731F48091520182608093AF
:1003A0005201089520812223ACF7089584E98093B7
:1003B000BC0008958093BB0084E88093BC0080E477
:1003C00091E0ECEBF0E008C0019731F4809152012C
:1003D000846080935201089520812223ACF7089510
:1003E000EF92FF920F931F93CF93DF937C01162F11
:1003F00088E70E94AC0180E00E94DA01112371F0CD
:10040000E7011150012F10E00F5F1F4F0E0D1F1D50
:1004100089910E94DA01C017D107D1F70E94D60155
:10042000DF91CF911F910F91FF90EF900895EF9280
:10043000FF920F931F93CF93DF937C018B0188E78B
:100440000E94AC0180E40E94DA010115110549F017
:10045000E7010E0D1F1D89910E94DA01C017D10717
:10046000D1F70E94D601DF91CF911F910F91FF909C
:10047000EF900895CF93DF9300D000D0CDB7DEB7D3
:10048000813890F4683080F4E0E5F1E080836183A6
:100490006055698391E29A838B838FE78C8364E054
:1004A000CE0101960E94F0010F900F900F900F90D7
:1004B000DF91CF910895982F990F890F880F0E948F
:1004C0003A02089560E080E00E945B0208951F9365
:1004D000CF93DF93CDB7DEB7C058D1090FB6F894EC
:1004E000DEBF0FBECDBFFE01319680E8DF011D9259
:1004F0008A95E9F710E0612F80E00E945B0260E8D6
:1005000070E0CE0101960E9417021F5F183099F724
:100510000E946202C058DF4F0FB6F894DEBF0FBED4
:10052000CDBFDF91CF911F9108951F93CF93DF939C
:10053000CDB7DEB76C970FB6F894DEBF0FBECDBF58
:10054000182F0E94A301ECEEF2E0DE0111969E014D
:10055000245E3F4F84918D933196A217B307D1F754
:100560001C8F6CE1CE0101960E94F0010E9467028F
:100570006C960FB6F894DEBF0FBECDBFDF91CF9162
:100580001F9108956F927F928F929F92AF92BF9228
:10059000CF92DF92EF92FF920F931F93CF93DF934F
:1005A000CDB7DEB76C970FB6F894DEBF0FBECDBFE8
:1005B000893009F118F4883039F053C08A30F1F1EC
:1005C0008D3009F448C04DC000E511E0D8018C9190
:1005D0009091000111966C91891B0E945B0280E250
:1005E0000E94C202F8018081909100016181891B03
:1005F0000E945B0265C18091500190910001292FFA
:1006000030E0220F331F220F331FB901680F711D15
:1006100045E150E0DA01A21BB30B6A177B0740F4F7
:10062000990F990F60915101890F0E945B0248C197
:100630006091510185E10E945B0242C180915101AC
:10064000873008F03DC160910001680F8091500132
:100650000E945B0235C16091510180E00E945B0203
:100660002FC1A0915001AA3708F02AC1803208F4A6
:1006700027C1805249E650E0FA019491891768F148
:1006800094919F3F09F41CC1E8E6F0E0249190E0CA
:1006900030E0205231092817390769F060E010C0B6
:1006A000F901EE0FFF1FE859FF4FE491F0E0B0971A
:1006B000E817F90729F4FA0184918F3F71F400C11A
:1006C0006F5F262F30E0A901440F551F47595F4F38
:1006D000FA0174917F3F21F7F3C0909100019230AD
:1006E00009F0C7C02A2F30E0245F3F4F2138310581
:1006F00008F0E6C05E01FDE0AF0EB11C90E0FC0129
:10070000EE0FFF1FE80FF91FEE0FFF1FCF018458F8
:100710009F4F3C014E0199E1890E911C6501EE2429
:10072000E394F12C8601D6011D921C92F301A49151
:1007300021E030E080E090E0B0E0AD01082E02C0A2
:10074000559547950A94E2F740FF1BC0F801608178
:100750007181A701022E02C0440F551F0A94E2F7CF
:10076000642B752BAC01440F551FF70102C0EE0F2F
:10077000FF1F4A95E2F7AF01462B572BF801518333
:10078000408301962E5F3F4F88309105B1F6F2E02D
:10079000CF0ED11C5FEF651A750A8C149D0409F009
:1007A000C1CFF50120E030E0C901880F991F4081D9
:1007B0003296A1E0B0E0AC0FBD1FA80FB91F4C935B
:1007C000A2E0B0E0AC0FBD1FA80FB91F4C932F5F84
:1007D0003F4F2630310541F76CE070E0CE010196C5
:1007E0000E941702E0E5F1E081818F54898F81E258
:1007F0008A8F80818B8F8FE78C8F64E0CE01499642
:100800000E94F00120E030E0C901880F991FD50156
:1008100011964C91B2E0AB0EB11CE1E0F0E0EC0FB0
:10082000FD1FE80FF91F4083E2E0F0E0EC0FFD1F31
:10083000E80FF91F40832F5F3F4F2630310521F726
:100840006CE070E0CE0101960E94170200E511E015
:10085000F80181818055898F8081845F8B8F64E06E
:10086000CE0149960E94F001D8018C91845F8C934F
:1008700027C02A2F30E02A5F3F4F2138310500F58D
:1008800090E0FC01EE0FFF1FE80FF91FEE0FFF1FB6
:10089000E458FF4FDE0111969E01295F3F4F84917E
:1008A0008D933196A217B307D1F766E070E0CE01C1
:1008B00001960E941702E0E5F1E080818A5F808363
:1008C0006C960FB6F894DEBF0FBECDBFDF91CF910F
:1008D0001F910F91FF90EF90DF90CF90BF90AF905E
:1008E0009F908F907F906F900895CF93DF93EC014E
:1008F0008881882331F021960E94C202899181115A
:10090000FBCFDF91CF910895CF93DF93EA010E944F
:100910005B02CE010E947504DF91CF910895CF93C1
:10092000C42F0E945B028C2F82958F70282F30E09D
:100930002A30310514F4805D01C0895C0E94C20236
:100940008FE891E00197F1F700C00000CF708C2F85
:1009500090E00A971CF480E38C0F02C087E38C0FB1
:100960000E94C2028FE891E00197F1F700C00000F9
:10097000CF910895CF93DF93CDB7DEB760970FB6D1
:10098000F894DEBF0FBECDBF2FEF80E792E021507D
:1009900080409040E1F700C000008FEA0E9495027D
:1009A00041E051E060E070E082E090E00E94840469
:1009B0004DE051E061E070E085E090E00E94840449
:1009C000EFEFF3ED20E3E150F0402040E1F700C00D
:1009D00000000E9467020E946C070E94A90587E33D
:1009E0000E948405823989F443E151E060E070E0BF
:1009F00082E090E00E94840442E251E061E070E015
:100A000084E090E00E9484041CC08059823088F405
:100A10004BE251E060E070E082E090E00E948404EC
:100A200042E251E061E070E084E090E00E948404E2
:100A300008C04AE351E060E070E080E090E00E948E
:100A4000840482E00E948405682F606282E00E9434
:100A5000770583E00E948405682F606883E00E9428
:100A600077058FEF9DE3E9E481509040E040E1F7A6
:100A700000C000000E946702BE016F5F7F4F82E5E9
:100A80000E940007813031F5CE0101960E943407A3
:100A90008130C1F4CE0101967C0110E0F701419153
:100AA0007F0160E0812F0E948F041E5F1031B1F73B
:100AB000FFEF21E18AE7F15020408040E1F700C0DC
:100AC000000008C04AE451E061E070E080E090E09E
:100AD0000E9484049FEFE3EDF0E39150E040F0408A
:100AE000E1F700C00000C8CF219A299A0895CF935A
:100AF000C62F2A98880F8E770E9473078C2F0E942A
:100B000073072A9ACF9108952A98880F8E77806864
:100B10000E94730780E00E9473072A9A0895299A19
:100B20008FE891E00197F1F700C0000029988FE865
:100B300091E00197F1F700C00000299A8FE891E059
:100B40000197F1F700C000006FE081E00E94770597
:100B500008950E9474050E948F056DE88AE20E9444
:100B600077056EE38BE20E9477056EE18CE20E94CE
:100B7000770560E08DE20E94770560E485E10E94E0
:100B800077056DE381E10E94770584E10E94840589
:100B9000982F937029F4682F636084E10E94770591
:100BA00008953F924F925F926F927F928F929F92A1
:100BB000AF92BF92CF92DF92EF92FF920F931F936B
:100BC000CF93DF93982EF62EE72E442E822E332ECF
:100BD00058018CE0981609F4C9C0EEE09E1203C0DB
:100BE00010E102E102C010E000E084E00E94840510
:100BF000682F6F7784E00E9477058AE00E94840561
:100C0000682F60688AE00E94770560E081E00E94BA
:100C10007705512C612C712C41145104610471042D
:100C200019F415C010E307E7CF2DDE2DC12CD12C10
:100C30007601699189E00E947705FFEFCF1ADF0AFC
:100C4000EF0AFF0AC414D504E604F70490F3692DF3
:100C500081E00E9477058CE0981208C08DE00E9428
:100C60008405682F60688DE00E94770584E00E940B
:100C70008405F82EC0E0D0E011600AC084E00E9434
:100C80008405F82E2196CF3CE7E0DE0709F48CC0FE
:100C9000812F8F2199F392C00170F02211F0C2E0F0
:100CA00001C0C1E0FCE09F1298C08AE00E94840568
:100CB000482E8CE00E948405282F2770A9F0842DEF
:100CC00090E00197880F991F880F991F880F991F2F
:100CD000820F911D092E000CAA0BBB0BF50180831E
:100CE0009183A283B38311C0842D90E0880F991F54
:100CF000880F991F880F991F092E000CAA0BBB0B98
:100D0000F50180839183A283B383442071F0842D05
:100D1000813108F080E1482E512C612C712C411456
:100D200051046104710429F458C0412C512C320142
:100D30004394082D132DC12CD12C760189E00E94FB
:100D40008405F80181938F01FFEFCF1ADF0AEF0AC4
:100D5000FF0AC414D504E604F70480F33EC06CE037
:100D600081E00E94770510E307E778CF84E00E94D6
:100D70008405682F6F7784E00E9477058AE00E94DF
:100D80008405682F60688AE00E94770560E081E052
:100D90000E947705512C612C712C4114510461047F
:100DA000710409F03FCFDBCF8DE00E948405682FEE
:100DB0006F778DE00E947705C3E00FC08DE00E9441
:100DC0008405682F6F778DE00E94770586E00E948A
:100DD00084058B7109F460CFC3E08C2FDF91CF9134
:100DE0001F910F91FF90EF90DF90CF90BF90AF9049
:100DF0009F908F907F906F905F904F903F9008955D
:100E0000EF92FF920F931F93CF93DF9300D000D008
:100E1000CDB7DEB7182F7B0167E08DE00E94770524
:100E2000F70110838E010F5F1F4F970141E0B7015B
:100E30008CE00E94D105813059F449815A816B813F
:100E40007C81403151056105710519F083E001C0D5
:100E500083E00F900F900F900F90DF91CF911F9133
:100E60000F91FF90EF900895EF92FF920F931F93D1
:100E7000CF93DF9300D000D0CDB7DEB77C0160E028
:100E80008DE00E94770583E9F701808380E281830A
:100E90008E010F5F1F4F970142E0B7018CE00E9467
:100EA000D105813071F4F701A7014C5F5F4F90E0ED
:100EB000219192274E175F07D9F7F70124819213EA
:100EC00083E00F900F900F900F90DF91CF911F91C3
:100ED0000F91FF90EF90089584B18C6284B92498AB
:100EE00081E58CBD08958EBD0DB407FEFDCF8EB596
:060EF0000895F894FFCF05
:100EF60001524649442052656164657200312E30C4
:100F06002E30004D49464152452052433532327605
:100F160032004465746563746564004D4946415208
:100F2600452052433532327631004E6F207265616C
:100F360064657220666F756E64004572726F72002A
:00000001FF
